:020000040800F2
:100000000019002045010008D5250008D725000863
:10001000DB250008DF250008E325000800000000BC
:10002000000000000000000000000000E7250008BC
:10003000E925000800000000EB250008ED25000878
:100040005F0100085F0100085F0100085F01000810
:100050005F0100085F010008FF2500085F0100083C
:100060005F0100085F0100085F0100085F010008F0
:100070005F0100085F0100085F0100085F010008E0
:100080005F0100085F0100085F0100085F010008D0
:100090005F0100085F0100085F0100085F010008C0
:1000A0005F0100085F0100085F0100085F010008B0
:1000B000152600085F0100085F0100085F010008C5
:1000C0005F0100085F0100085F0100085F01000890
:1000D0005F0100085F0100085F0100085F01000880
:1000E0005F0100085F0100085F0100085F01000870
:1000F0005F0100085F0100085F0100085F01000860
:100100005F0100085F0100085F0100085F0100084F
:100110005F0100085F0100085F0100085F0100083F
:100120005F0100085F0100085F0100085F0100082F
:10013000DFF80CD006F0A8FA00480047CB230008EF
:10014000001900200648804706480047FEE7FEE702
:10015000FEE7FEE7FEE7FEE7FEE7FEE7FEE7FEE777
:1001600045020008310100080CB500200190009004
:100170006B48006840F480306949086000BF6848F7
:10018000006800F4003000900198401C0190009835
:1001900018B90198B0F5A06FF1D16148006810F46A
:1001A000003F02D00120009001E000200090009864
:1001B000012842D15B48006840F0100059490860AE
:1001C0000846006820F0030008600846006840F018
:1001D000020008605248406851494860084640683B
:1001E00048600846406840F48060486008464068BF
:1001F00020F47C1048600846406840F4E8104860ED
:100200000846006840F08070086000BF44480068FD
:1002100010F0007FFAD04248406820F003004049C7
:1002200048600846406840F00200486000BF3C4813
:10023000406800F00C000828F9D10CBD10B5FFF79C
:1002400093FF10BD10B53648006840F001003449F6
:10025000086008464068344908403149486008460B
:100260000068324908402E4908600846006820F4BA
:10027000802008600846406820F4FE0048604FF483
:100280001F008860FFF7DAFF4FF000602849086020
:1002900010BD10B5002100200022214B5B6803F047
:1002A0000C0121B1042906D0082928D107E0214BEF
:1002B000214C236027E01F4B1F4C236023E0184B89
:1002C0005B6803F47010164B5B6803F48032022302
:1002D00003EB904022B9194B4343174C23600DE0C8
:1002E0000F4B5B6813F4003F04D0144B4343124C94
:1002F000236003E00F4B43430F4C236003E00D4B9F
:100300000D4C236000BF00BF054B5B68C3F30313B4
:100310000B4CE15C084B1B68CB40074C236010BDC5
:1003200000100240002002400000FFF8FFFFF6FE30
:1003300008ED00E000127A000000002000093D00F6
:100340000400002031490143314A1160704770B503
:10035000002100230F22C4780CB32D4C246804F430
:10036000E064C4F5E064210AC1F10403CA404478A2
:1003700004FA03F18478144021430901254C0678DE
:10038000A155047804F01F050124AC4005786D11D7
:100390004FF0E02606EB8505C5F8004109E004783A
:1003A00004F01F050124AC401B4D0678761145F87A
:1003B000264070BD194A0A400243154B1B1F1A60A4
:1003C000704739B1124A121D12680243104B1B1DAF
:1003D0001A6006E00E4A121D126882430C4B1B1D68
:1003E0001A607047042808D14FF0E021096941F0F4
:1003F00004014FF0E022116107E04FF0E0210969AC
:1004000021F004014FF0E022116170470000FA056D
:100410000CED00E000E400E080E100E080FFFF1F61
:1004200001684FF6FE7211400160002101604160D9
:100430008160C1608C49884208D18B49083949687C
:1004400041F00F01884A083A51608AE08649143128
:10045000884208D184490839496841F0F001824A4C
:10046000083A51607DE080492831884208D17E49B0
:100470000839496841F470617B4A083A516070E07C
:1004800079493C31884208D177490839496841F4B3
:100490007041754A083A516063E0734950318842AF
:1004A00008D171490839496841F470216E4A083A07
:1004B000516056E06C496431884208D16A49083974
:1004C000496841F47001684A083A516049E0664958
:1004D0007831884208D164490839496841F070612F
:1004E000614A083A51603CE06049884206D1011FE8
:1004F000096841F00F01021F116032E05B491431BD
:10050000884208D15949091F096841F0F001574A4A
:10051000121F116025E055492831884208D15349FE
:10052000091F096841F47061504A121F116018E0F8
:100530004E493C31884208D14C49091F096841F4B1
:1005400070414A4A121F11600BE0484950318842FD
:1005500007D14649091F096841F47021434A121F17
:100560001160704710B50022026847F6F0739A4395
:100570000C6A8B6823430C6923434C6923438C69C1
:100580002343CC6923434C6A23438C6A23431A4395
:100590000260CB6843600B6883604B68C36010BD2A
:1005A0000021016041608160C16001614161816140
:1005B000C161016241628162704721B1026842F00B
:1005C0000102026004E002684FF6FE731A40026006
:1005D00070471AB103680B43036002E003688B4362
:1005E00003607047416070470146486880B27047B9
:1005F00001460020002211F0805F03D01B4B083B16
:100600001A6802E0184B083B1A680A4201D0012020
:1006100000E00020704710F0805F03D01349091FED
:10062000086002E010490839486070470146002020
:10063000002211F0805F03D00C4B083B1A6802E0E7
:10064000094B083B1A680A4201D0012000E0002053
:10065000704710F0805F03D00449091F086002E072
:100660000149083948607047080002400804024008
:10067000002044490860091D0860091D0860091D23
:10068000086041483F4914310860704700213D49E6
:100690008279002A3AD00A46126803689A430B46C8
:1006A0001A600A1D126803689A430B1D1A600279CA
:1006B00011440A6803681A430A60324A0832126811
:1006C00003689A432F4B08331A601A1D1268036897
:1006D0009A432C4B0C331A604279102A0ED11A1F00
:1006E000126803681A43274B08331A601A1D1268F0
:1006F00003681A43234B0C331A600DE021494279F9
:1007000011440A6803681A430A6005E0027911443B
:100710000A6803689A430A6070470021016001710A
:100720000C2141710021817170471649103109680F
:100730000143144A10321160704701460020114AEB
:10074000143212680A4201D0012000E000207047F4
:100750000C49143108607047014600200022094B03
:100760001B6803EA0102074B14331B680B4202D0DB
:100770000AB1012000E000207047024914310860EE
:100780007047000000040140FFFF0F0010B5044651
:10079000CA48844208D10121042000F027FB00212F
:1007A000042000F023FB46E0C548844208D1012123
:1007B000082000F01BFB0021082000F017FB3AE0A6
:1007C000C048844208D10121102000F00FFB002115
:1007D000102000F00BFB2EE0BB48844208D1012121
:1007E000202000F003FB0021202000F0FFFA22E08F
:1007F000B648844208D10121402000F0F7FA0021D8
:10080000402000F0F3FA16E0B148844208D10121FB
:10081000802000F0EBFA0021802000F0E7FA0AE0E7
:10082000AC48844207D10121801500F0DFFA002195
:10083000A01500F0DBFA10BD10B50121084600F04C
:10084000D5FA0021012000F0D1FA10BD2DE9F041C8
:10085000024600250026002000230024002791F8EE
:1008600003C00CF00F0591F803C01CF0100F03D06B
:1008700091F802C04CEA050591F800C0BCF1000FE8
:1008800031D0146800202BE04FF0010C0CFA00F37B
:10089000B1F800C00CEA03069E4220D183004FF05D
:1008A0000F0C0CFA03F7BC4305FA03FC4CEA0404F2
:1008B00091F803C0BCF1280F06D14FF0010C0CFADF
:1008C00000FCC2F814C00AE091F803C0BCF1480F64
:1008D00005D14FF0010C0CFA00FCC2F810C0401C0E
:1008E0000828D1D31460B1F800C0BCF1FF0F34DD8B
:1008F000546800202EE000F1080C4FF0010808FABF
:100900000CF3B1F800C00CEA03069E4221D183002B
:100910004FF00F0C0CFA03F7BC4305FA03FC4CEA4A
:10092000040491F803C0BCF1280F05D100F1080CB4
:1009300008FA0CF8C2F8148091F803C0BCF1480F13
:1009400007D100F1080C4FF0010808FA0CF8C2F8C2
:100950001080401C0828CED35460BDE8F0814FF6CB
:10096000FF710180022181700421C170704702462D
:10097000002093680B4201D0012000E00020704766
:100980000146886880B2704702460020D3680B4257
:1009900001D0012000E0002070470146C86880B205
:1009A000704701617047416170470AB1016100E021
:1009B00041617047C16070474FF480320A438261E1
:1009C0008161826182698269704702460020424BE0
:1009D00018684FF68073184040EA021008433E4BF7
:1009E000186070473D49C8617047F0B50A4600235A
:1009F00000240021002500F00046B6F1004F02D18E
:100A0000354EF16901E0344E7168C0F3034583B29D
:100A100000F44016B6F5401F08D121F070612E4E4B
:100A2000766826F070662C4F7E6012E000F4801627
:100A3000B6F5801F06D1032606FA05F4A14341F05E
:100A4000706106E0460D360103FA06F6B14341F047
:100A5000706122B1460D360103FA06F6314300F00B
:100A60000046B6F1004F02D11B4EF16101E01A4E73
:100A70007160F0BD30B500228B071C0F0F2303FA05
:100A800004F2154B08338C1053F824309343124C66
:100A900008348D1044F8253023468C1053F8243048
:100AA0008C07240F00FA04F423430B4C08348D10F8
:100AB00044F8253030BD0A490860704700080140FD
:100AC000000C0140001001400014014000180140DA
:100AD000001C0140002001400000014000002042B5
:100AE000DC002042DD48006840F00100DB4908607E
:100AF00008464068DA490840D84948600846006816
:100B0000D8490840D54908600846006820F480208C
:100B100008600846406820F4FE0048604FF41F005B
:100B200088607047CD49096821F48031CB4A116053
:100B30001146096821F480211160B0F5803F03D08F
:100B4000B0F5802F0ED106E0C449096841F4803128
:100B5000C24A116007E0C149096841F4A021BF4AB7
:100B6000116000E000BF00BF704710B501460022D1
:100B7000002300204A11012A02D1B84C236806E064
:100B8000022A02D1B54C236A01E0B44C636A01F039
:100B90001F02012494401C4201D0012000E00020EB
:100BA00010BD38B5002000900024002500BF312082
:100BB000FFF7DBFF05460098401C00900098B0F559
:100BC000A06F01D0002DF2D03120FFF7CEFF08B189
:100BD000012400E00024204638BD014600209F4A41
:100BE000106820F0F80040EAC100106070479E498C
:100BF0000860704702460020984B586820F47C102B
:100C000042EA01031843954B5860704796490866BD
:100C1000704701460020914A506820F003000843C5
:100C2000506070478D48406800F00C0070470146E6
:100C300000208A4A506820F0F00008435060704756
:100C400001460020854A506820F4E0600843506067
:100C5000704701460020814A506820F4605040EA05
:100C6000C1005060704729B17C4A527A02437B4BE5
:100C70005A7204E0794A527A8243784B5A7270472A
:100C80007A490860704701460020744A506820F491
:100C900040400843506070470021754A11706F4A08
:100CA00082F82010012802D0042808D103E0012195
:100CB0006F4A117004E005216D4A117000E000BF19
:100CC00000BF70476B49086070476449096A014377
:100CD000624A11627047674944390860704730B50D
:100CE00000210022002400235C4D6D6805F00C01FA
:100CF00021B1042905D0082923D105E05E4D056006
:100D000022E05D4D05601FE0544D6D6805F47012E2
:100D1000524D6D6805F48034022505EB92421CB9F2
:100D2000564D554305600BE04C4D6D6815F4003F82
:100D300003D0524D5543056002E04F4D55430560C9
:100D400002E04D4D056000BF00BF444D6D6805F0E9
:100D5000F00109094A4D6B5C0568DD4045603F4D77
:100D60006D6805F4E061090A454D6B5C4568DD403E
:100D700085603A4D6D6805F46051C90A404D6B5C61
:100D80004568DD40C560354D6D6805F44041890B0F
:100D90003C4D6B5CC568B5FBF3F5056130BD29B111
:100DA0002E4A526902432D4B5A6104E02B4A526984
:100DB00082432A4B5A61704729B1284A92690243FB
:100DC000264B9A6104E0254A92698243234B9A613B
:100DD000704729B1214AD2690243204BDA6104E00D
:100DE0001E4AD26982431D4BDA61704729B11B4A02
:100DF000D2680243194BDA6004E0184AD268824391
:100E0000164BDA60704729B1144A12690243134B3A
:100E10001A6104E0114A12698243104B1A6170474B
:100E200014494039086070470F49C86470470B493E
:100E3000C87170470948406A40F0807007494862AD
:100E4000704701460020054A92680A4201D00120FD
:100E500000E000207047014988727047001002408E
:100E60000000FFF8FFFFF6FE00004242D8004242B9
:100E7000201002408004424200127A0000093D0026
:100E8000140000202400002010B50446BE4884420F
:100E900008D101218014FFF7A9FF0021A014FFF75A
:100EA000A5FF16E0B948844208D101210014FFF7DC
:100EB000AAFF00212014FFF7A6FF0AE0B4488442ED
:100EC00007D10121C013FFF79EFF0021E013FFF7B8
:100ED0009AFF10BD10B50022028802F441520B881F
:100EE0004C8823438C882343CC8823430C89234399
:100EF0004C8923438C892343CC8923431A430280A2
:100F0000838B4FF2FF74234083830B8A038210BDCF
:100F10002DE9F04F85B005460C464FF00009022739
:100F20004FF000084FF0010B0026B246A88B4FF29D
:100F300040010840A88302202884B5F81C90A068CE
:100F4000022801D100BF38E0A08810B94FF0010B92
:100F500001E04FF0020B8D48854200D100E000BF58
:100F60006846FFF7BCFEDDF800A0E088B0F5007F22
:100F70000AD14FEA1A2000EB80004000A168B0FBC4
:100F8000F1F0401D86B20BE04FEA4B10BAFBF0F0D7
:100F900000EB80004000A168B0FBF1F0401D86B27C
:100FA0000A20B6FBF0F606F00108A6EB0800C0F335
:100FB0004F074FF6FF7000EA0828022F01DBFF2FD2
:100FC00002DD02274FF00008E08840EA08003843BD
:100FD0002884A088A18908436188084321880843A0
:100FE00040F4006040EA0909A5F81C9005B0BDE88E
:100FF000F08F0021018041808180C1800181418189
:101000008181C181072101827047002101804180D7
:101010008180C1800221816000218181704721B1DE
:10102000028842F04002028004E002884FF6BF735B
:101030001A400280704721B1828B42F48062828321
:1010400004E0828B4FF6FF331A408283704730B53D
:10105000002400230C110125A540ABB21AB18588EC
:101060001D43858002E085889D43858030BD1AB18F
:1010700083880B43838002E083888B43838070479F
:1010800081817047014688897047A1F57E42FF3A09
:1010900004D0028842F48072028004E002884FF695
:1010A000FF631A400280704721B1828842F0040237
:1010B000828004E082884FF6FB731A40828070477A
:1010C00002884FF2FF731A40028002880A430280AE
:1010D0007047018841F480510180704721B1028836
:1010E00042F40052028004E002884DF6FF731A4079
:1010F0000280704702460020012901D0108B00E0D9
:10110000908A70470146088A7047B1F5804F04D134
:10111000028842F48042028004E002884BF6FF73AA
:101120001A40028070470246002013890B4201D00A
:10113000012000E000207047CA4302817047F0B5EB
:101140000246002000240023002501F00F0701269D
:10115000BE40B4B20B1101269E40B3B2968806EA97
:1011600003051689264202D00DB1012000E00020BF
:10117000F0BD10B5002201F00F040123A3409AB284
:10118000D343038110BD000000300140003800400F
:10119000003C004010B50446FE48844208D10121BD
:1011A000C014FFF723FE0021E014FFF71FFEC4E088
:1011B000B4F1804F08D101210846FFF724FE002139
:1011C0000120FFF720FEB8E0F348844208D1012156
:1011D0000220FFF718FE00210220FFF714FEACE00A
:1011E000EE48844208D101210420FFF70CFE0021C3
:1011F0000420FFF708FEA0E0E948844208D101215D
:101200000820FFF700FE00210820FFF7FCFD94E016
:10121000E448844208D101211020FFF7F4FD0021A9
:101220001020FFF7F0FD88E0DF48844208D101215B
:101230002020FFF7E8FD00212020FFF7E4FD7CE0FF
:10124000DA48844208D101214014FFF7CFFD002184
:101250006014FFF7CBFD70E0D548844209D101212D
:10126000C804FFF7C3FD00214FF40020FFF7BEFDC7
:1012700063E0D048844209D101210805FFF7B6FD9B
:1012800000214FF48010FFF7B1FD56E0CA488442B8
:1012900009D101214805FFF7A9FD00214FF40010F5
:1012A000FFF7A4FD49E0C548844208D10121402050
:1012B000FFF7A9FD00214020FFF7A5FD3DE0C04854
:1012C000844208D101218020FFF79DFD002180206C
:1012D000FFF799FD31E0BB48844208D10121801518
:1012E000FFF791FD0021A015FFF78DFD25E0B64821
:1012F000844209D101210804FFF778FD00214FF451
:101300008030FFF773FD18E0B048844209D1012115
:101310004804FFF76BFD00214FF40030FFF766FD36
:101320000BE0AB48844208D101218804FFF75EFD41
:1013300000214FF48020FFF759FD10BD00220288E4
:10134000944B98420ED0994B98420BD0B0F1804FFD
:1013500008D0914B984205D0904B984202D0904BC8
:10136000984204D14FF68F731A404B881A438D4B25
:10137000984207D08C4B984204D04FF6FF431A4056
:10138000CB881A4302808B8883850B880385814B29
:1013900098420BD0854B984208D08B4B984205D091
:1013A0008A4B984202D08A4B984201D10B7A03862D
:1013B00001238382704770B5002400220023058C2E
:1013C0004FF6FE7635400584028C8388048B4FF6F9
:1013D0008F752C40B51E2C400D882C43751E2A405D
:1013E0000D892A434D882A436A4DA8420BD06F4D80
:1013F000A84208D0744DA84205D0744DA84202D02E
:10140000734DA84213D14FF6F7752A404D892A43F0
:101410004FF6FB752A408D882A434FF6FF652B4017
:101420004FF6FF552B408D892B43CD892B4383806D
:101430000483CD888586028470BD70B500240022A7
:101440000023058C4FF6EF7635400584028C8388A7
:10145000048B48F6FF752C404FF6FF452C400D8855
:101460004FF6FF7606EA05252C434FF6DF752A4036
:101470000D8906EA05152A434D8806EA05152A4313
:10148000444DA84202D0494DA8421DD14FF67F7568
:101490002A404D894FF6FF7606EA05152A434FF696
:1014A000BF752A408D8806EA05152A434FF6FF3599
:1014B0002B404FF2FF752B408D8906EA85052B43A3
:1014C000CD8906EA85052B4383800483CD88058773
:1014D000028470BD70B5002400220023058C4FF6F5
:1014E000FF6635400584028C8388848B4FF68F75A8
:1014F0002C404FF6FC752C400D882C434FF6FF55C1
:101500002A400D894FF6FF7606EA05252A434D88C5
:1015100006EA05252A431F4DA84202D0234DA842C2
:101520001DD14FF2FF752A404D894FF6FF7606EA2E
:1015300005252A434FF6FF352A408D8806EA052502
:101540002A434EF6FF752B404DF6FF752B408D89D3
:1015500006EA05152B43CD8906EA05152B43838042
:101560008483CD888587028470BD70B500220023F6
:101570000024058C4EF6FF7635400584038C848864
:10158000828B48F6FF752A404FF6FF452A400D88AA
:1015900020E00000002C0140000400400008004052
:1015A000000C0040001000400014004000340140D6
:1015B000004C014000500140005401400018004020
:1015C000001C004000200040004001400044014059
:1015D000004801404FF6FF7606EA05252A434DF6FE
:1015E000FF752B400D8906EA05352B434D8806EA29
:1015F00005352B43FA4DA84202D0FA4DA84208D136
:101600004BF6FF752C408D894FF6FF7606EA85155F
:101610002C4384808283CD88A0F84050038470BD21
:10162000828B4FF2FF331A408283828B4FF6FF7317
:1016300003EA01231A4382837047F0B50C4615462E
:10164000002200210026078C4EF6FF7C07EA0C07DB
:101650000784828B018C4FF6FF7707EA043640F649
:10166000FF473A404FF6FF7707EA05273A434FF620
:10167000FF7707EA03373A43D94FB8420ED0D94F24
:10168000B8420BD0B0F1804F08D0D74FB84205D048
:10169000D64FB84202D0D64FB84206D14DF6FF77AA
:1016A000394046F48057394305E047F6FF57394043
:1016B00044F48057394382830184F0BD828B4FF616
:1016C000F3731A408283828B0A4382837047F0B59A
:1016D0000C461546002200210026078C4FF6FF6CB1
:1016E00007EA0C070784828B018C4FF6FF7707EA25
:1016F00004264FF60C773A404FF6FF7707EA0317B8
:101700002F433A43B64FB8420ED0B64FB8420BD033
:10171000B0F1804F08D0B44FB84205D0B34FB842B3
:1017200002D0B34FB84206D14FF6FF57394046F4C6
:101730008077394305E04FF2FF57394044F4807712
:10174000394382830184F0BD028B4FF2FF331A408C
:101750000283028B4FF6FF7303EA01231A430283CD
:101760007047F0B50C461546002200210026078C74
:101770004FF6EF7C07EA0C070784028B018C4FF6CB
:10178000FF7707EA041640F6FF473A404FF6FF7727
:1017900007EA03373A434FF6FF7707EA05273A434C
:1017A0008F4FB8420ED08F4FB8420BD0B0F1804F60
:1017B00008D08D4FB84205D08C4FB84202D08C4F24
:1017C000B84206D14FF6DF77394046F0100739436B
:1017D00005E04FF65F77394044F010073943028344
:1017E0000184F0BD028B4FF6F3731A400283028B23
:1017F0000A4302837047F0B50C46154600220021CB
:10180000068C4FF6FE773E400684028B018C4FF625
:101810000C7632407E1C06EA03162E433243704E8D
:10182000B0420ED06F4EB0420BD0B0F1804F08D016
:101830006D4EB04205D06D4EB04202D06C4EB042FB
:1018400006D14FF6FD76314044F00106314305E004
:101850004FF6F576314044F00106314302830184AE
:10186000F0BD70B505460C465D4885420ED05D481A
:1018700085420BD0B5F1804F08D05B48854205D03A
:101880005A48854202D05A48854200D100E000BF44
:10189000208850B92389A28861882846FFF7ABFFCA
:1018A000E1882846FFF79EFF25E0208804280AD11A
:1018B0002389A28861882846FFF753FFE1882846DC
:1018C000FFF742FF17E0208808280AD12389A28861
:1018D00061882846FFF7FBFEE1882846FFF7EEFE09
:1018E00009E02389A28861882846FFF7A6FEE188DF
:1018F0002846FFF795FE70BD2DE9F04105460C46E0
:1019000000260127608808B9022600E00026A0888A
:10191000012801D1022700E001272088A0B92389EE
:10192000A28861882846FFF766FFE1882846FFF70E
:1019300059FF23893A4631462846FFF712FFE188CE
:101940002846FFF701FF13E02389A2886188284613
:10195000FFF707FFE1882846FFF7F6FE23893A469E
:1019600031462846FFF747FFE1882846FFF73AFF50
:10197000BDE8F0810A884B881A438B881A43CB88CC
:101980001A430B891A434B891A438B891A43A0F8CF
:10199000442070474FF6FF71818000210180C18093
:1019A0004180017270470021018041808180C180A7
:1019B000018141818181C181704700210180418085
:1019C000012181800021C1800181704700210180B7
:1019D00041808180C1800181418181817047000007
:1019E000002C014000340140000400400008004089
:1019F000000C004021B1028842F00102028004E0A4
:101A000002884FF6FE731A400280704731B1B0F879
:101A1000442042F40042A0F8442005E0B0F84420FD
:101A2000C2F30E02A0F8442070471AB183890B4319
:101A3000838102E083898B43838170478182704771
:101A400041EA0203A0F8483070471AB183890B437A
:101A5000838102E083898B438381704701894FF63C
:101A6000F8721140018170470A46002101894FF642
:101A70008F73194011430181704730B504460D46FC
:101A800029462046FFF7F0FF208940F0070020811B
:101A900030BD2DE9F04104460D4616461F46602D27
:101AA00006D13B46012231462046FFF75AFE05E0AB
:101AB0003B46012231462046FFF79DFE294620463F
:101AC000FFF7D2FF208940F007002081BDE8F081B8
:101AD00030B50C4600210189C9B24FF6FF7505EA01
:101AE0000325154325432943018130BD2DE9F041EC
:101AF00005460E4617469846002443463A46314668
:101B00002846FFF7E5FF2C894FF6F870044044F0B3
:101B100007044FF68F70044044F070042C81BDE838
:101B2000F081F0B504460D4616461F463B46324648
:101B300029462046FFF7CCFF208940F480402081D1
:101B4000F0BD0185828270470A46002101884FF668
:101B50008F731940114301807047F0B50C4615464C
:101B60001E460021002200230189028B038C4FF6C0
:101B7000F877394021434FF6FC473A4040F20117CD
:101B80003A434FF6DD773B404FF6FF7707EA0617FB
:101B90002F433B43018102830384F0BD0A460021A9
:101BA000018B4FF68F7319401143018370470A462A
:101BB0000021018B48F6FF7319404FF6FF7303EACB
:101BC00002231943018370470A460021818B4FF697
:101BD0008F7319401143818370470A460021818B1E
:101BE00048F6FF7319404FF6FF7303EA02231943C7
:101BF0008183704721B1028842F08002028004E0B4
:101C000002884FF67F731A400280704721B18288A4
:101C100042F00402828004E082884FF6FB731A408F
:101C20008280704721B1828842F00802828004E0FD
:101C300082884FF6F7731A408280704721B18288FC
:101C400042F00102828004E082884FF6FE731A405F
:101C5000828070470A460021018B4FF6F7731940C6
:101C60001143018370470A460021018B4FF2FF7335
:101C700019404FF6FF7303EA0223194301837047AB
:101C80000A460021818B4FF6F77319401143818377
:101C900070470A460021818B4FF2FF7319404FF6BF
:101CA000FF7303EA02231943818370470A46002128
:101CB000018B4FF6FB7319401143018370470A46AD
:101CC0000021018B4FF6FF3319404FF6FF7303EAF3
:101CD00002231943018370470A460021818B4FF686
:101CE000FB7319401143818370470A460021818BA1
:101CF0004FF6FF3319404FF6FF7303EA02231943EF
:101D0000818370470A460021018B4FF67F7319408B
:101D10001143018370470A460021018BC1F30E0174
:101D20004FF6FF7303EA02231943018370470A4603
:101D30000021818B4FF67F731940114381837047D7
:101D40000A460021818BC1F30E014FF6FF7303EAAF
:101D500002231943818370470A460021018C4FF604
:101D6000FD7319401143018470470A460021018C1C
:101D70004FF6F77319401143018470470A4600215A
:101D8000018C4FF6DF7319404FF6FF7303EA02131D
:101D90001943018470470A460021018C4FF67F7376
:101DA00019404FF6FF7303EA021319430184704789
:101DB0000A460021018C4FF6FF5319404FF6FF737E
:101DC00003EA02231943018470470A460021018C6B
:101DD0004FF2FF7319404FF6FF7303EA02231943D2
:101DE000018470470A460021018C4DF6FF731940AB
:101DF0004FF6FF7303EA023319430184704730B58D
:101E0000002301248C40A3B2048C9C430484048CE2
:101E100002FA01F5ADB22C43048430BD30B5002385
:101E200004248C40A3B2048C9C430484048C02FAE6
:101E300001F5ADB22C43048430BD70B503460020DB
:101E400000241846183001258D40ACB21D8CA543E6
:101E50001D8409B1082909D100EB6100056825F04E
:101E6000700505600568154305600EE00D1FC5F39C
:101E70004E052844056825F4E045056005684FF6E1
:101E8000FF7606EA02263543056070BD21B102885F
:101E900042F00202028004E002884FF6FD731A400D
:101EA0000280704721B1028842F00402028004E0FF
:101EB00002884FF6FB731A400280704721B1828876
:101EC00042F08002828004E082884FF67F731A40DD
:101ED0008280704702884FF6F7731A4002800288AA
:101EE0000A430280704782884FF68F731A408280BF
:101EF00082880A438280704702894FF6F8731A403D
:101F0000028102890A430281704702894FF67F737A
:101F10001A40028102890A43028170478184704716
:101F20008185704781867047018770478187704738
:101F3000A0F84010704702884FF6FF431A40028015
:101F400002880A43028070470146888E7047014626
:101F5000088F70470146888F70470146B1F84000EE
:101F600070470146888C70470146088D70470246CD
:101F70000020138A0B4201D0012000E000207047AE
:101F8000CA430282704730B5024600200023002475
:101F9000158A05EA0103958905EA010413B10CB11C
:101FA000012000E0002030BDCA43028270470000DB
:101FB00010B50446FB48844209D101218803FEF78D
:101FC00015FF00214FF48040FEF710FF32E0F64885
:101FD000844209D101214804FEF715FF00214FF486
:101FE0000030FEF710FF25E0F048844209D10121BE
:101FF0008804FEF708FF00214FF48020FEF703FF5E
:1020000018E0EB48844209D10121C804FEF7FBFE29
:1020100000214FF40020FEF7F6FE0BE0E548844275
:1020200008D101210805FEF7EEFE00214FF48010D3
:10203000FEF7E9FE10BD2DE9F04786B005460E46D5
:102040000024A24600BFA1460027B08900B100BF0E
:102050002F462C8A4CF6FF700440F08804432C82F3
:10206000AC894EF6F3100440B08831890843718979
:1020700008430443AC81AC8A4FF6FF400440B0896A
:102080000443AC8201A8FEF72AFEC648874202D16B
:10209000DDF810A001E0DDF80CA0A88910F4004FD5
:1020A00008D00AEBCA0000EB0A1031684900B0FB07
:1020B000F1F807E00AEBCA0000EB0A10316889006A
:1020C000B0FBF1F86420B8FBF0F0040120096421B2
:1020D00001FB1089A88910F4004F08D0322000EBD2
:1020E000C900B0FBF1F000F00700044308E0322023
:1020F00000EB09106421B0FBF1F000F00F00044385
:102100002C8106B0BDE8F0874FF416510160002124
:102110008180C18001810C21418100218181704732
:1021200010B502460020108A4FF2FF0318400B88BA
:102130004C8823438C882343CC8823431843108244
:1021400010BD0021018041808180C180704721B194
:10215000828942F40052828104E082894DF6FF7345
:102160001A4082817047F0B50346002400260025FE
:102170000020A1F510676A3F00D100BF1846C1F3E7
:10218000421401F01F06012707FA06F5012C01D1C0
:102190000C3004E0022C01D1103000E014301AB1F0
:1021A00007682F43076002E00768AF430760F0BD90
:1021B0001AB1838A0B43838202E0838A8B43838232
:1021C0007047028A4FF6F0731A400282028A0A436D
:1021D0000282704782894FF2FF731A40828182899E
:1021E0000A438281704721B1828942F002028281D2
:1021F00004E082894FF6FD731A4082817047028A9B
:102200004FF6DF731A400282028A0A430282704745
:1022100021B1028A42F48042028204E0028A4BF633
:10222000FF731A4002827047C1F308028280704730
:1022300001468888C0F308007047818941F0010198
:1022400081817047028BD2B20283028B42EA012263
:1022500002837047028B02F47F420283028B0A439F
:102260000283704721B1828A42F02002828204E018
:10227000828A4FF6DF731A408282704721B1828AC8
:1022800042F01002828204E0828A4FF6EF731A4015
:102290008282704721B1828A42F00802828204E081
:1022A000828A4FF6F7731A408282704721B1828981
:1022B00042F40042828103E08289C2F30E028281ED
:1022C000704721B1828A42F40062828204E0828AED
:1022D0004FF2FF731A4082827047828A4FF6FB7377
:1022E0001A408282828A0A438282704721B1828A9E
:1022F00042F00202828204E0828A4FF6FD731A40A5
:102300008282704702460020B1F5007F00D100BFF5
:1023100013880B4201D0012000E00020704701F437
:102320000072B2F5007F00D100BFCA43028070473F
:1023300070B502460024002300250020A1F5106698
:102340006A3E00D100BFC1F3421501F01F03012610
:1023500006FA03F3012D02D19689334006E0022DDF
:1023600002D1168A334001E0968A33400C120126CE
:1023700006FA04F41688344013B10CB1012000E0D1
:10238000002070BD10B500220023A1F510646A3C46
:1023900000D100BF0A1201249440A3B2DC430480A0
:1023A00010BD0000003801400044004000480040DB
:1023B000004C00400050004001B502E00098401E73
:1023C000009000980028F9D108BD92B000F068F99B
:1023D00000F09FF900F088FD00F017FE00F001FE0C
:1023E00000F0A4FD4FA004F09DF900F055FD00F0B1
:1023F000DDF95248FFF7E0FF00F042FA504908606B
:1024000008460068A0F58041683917D04C4801683B
:102410004CA004F087F951A004F084F908E000F022
:102420002FFA474908600846016846A004F07AF987
:1024300043480068A0F580416839F0D14048016800
:1024400040A004F06FF94DA004F06CF903F088FA95
:102450004FF6FF70FFF7B0FF00F038FE012108468D
:10246000FEF7B7FC01204E49087001024D48FEF707
:102470009AFA00F0F0FD53E04B48007850B100208C
:102480004949087001214948FFF7B4FA03F096FA68
:1024900002F066FF46480078002841D000204449F9
:1024A00008704448006803F0EBFE04460D464248BD
:1024B000006803F0E5FE06460F464048006803F05A
:1024C000DFFE804689463E48006803F0D9FE82461A
:1024D0008B463C48006803F0D3FECDE910013A4832
:1024E000006803F0CDFECDE90E013848006803F026
:1024F000C7FECDE904ABCDE90689CDE90867CDE992
:102500000A45CDE90C01DDE91001CDE90201DDE963
:102510000E01CDE900012E48DDE90C2304F002F99B
:10252000AAE700000D0AE4B8B2E58FA3E5889DE5AF
:10253000A78BE58C96E68890E58A9F00FFFF0F0049
:10254000280000200D0A202020202050524F445FF8
:102550004944203D20307825582000000D0A2020D5
:10256000202020414449533136343838E5889DE5F0
:10257000A78BE58C96E5A4B1E8B4A5000D0A202050
:10258000202020414449533136343838E5889DE5D0
:10259000A78BE58C96E68890E58A9F5C6E0D00001F
:1025A0004B000020001C01404800002000040040B7
:1025B0004A000020300000203400002038000020B5
:1025C000B0000020AC000020A8000020A4000020E3
:1025D0005C7E0008704700BFFEE700BFFEE700BF5B
:1025E000FEE700BFFEE77047704770472548006868
:1025F00020B124480068401E22490860704710B589
:102600000120FEF7A9F820B101201F490860FEF75C
:10261000B4F810BD10B501218807FFF7B4FC80B3F2
:102620001A480078012828D119480068401C184928
:10263000086008460068642801D901200860144831
:10264000007810F0010F02D10120124908701048E3
:1026500000680521B0FBF1F201FB120010B9012066
:102660000D4908700A4800686421B0FBF1F201FBD3
:10267000120010B901200949087001218807FFF7ED
:1026800093FC10BD540000202C0000204B000020C3
:102690004000002048000020490000204A0000209F
:1026A00000B585B0012144F20400FEF785FB4FF42C
:1026B0000070ADF8100018208DF8130003208DF87D
:1026C000120004A93548FEF7C1F84FF48060ADF858
:1026D000100004208DF8130004A93048FEF7B6F866
:1026E0004FF4E13000900020ADF80400ADF8060092
:1026F000ADF80800ADF80C000C20ADF80A006946F2
:102700002748FFF798FC01212548FFF720FD05B079
:1027100000BD00B58BB001210846FEF740FB204804
:10272000001D00901F4801901020029041F2883057
:1027300003900020049080200590002006900790D0
:1027400008904FF48050099000200A90694616487E
:10275000FDF708FF01211448FDF72FFF0BB000BD66
:1027600070B504460D46E1B20D48FFF75DFD00BFB0
:1027700080210B48FFF7C6FD0028F9D0204670BD28
:1027800010B5044600BF20210548FFF7BBFD002817
:10279000F9D00348FFF74CFD10BD000000080140D0
:1027A00000380140F00000204400024000B587B02E
:1027B00001210C20FEF700FB01210803FEF7FCFAC3
:1027C000A020ADF8040003208DF8060018208DF835
:1027D000070001A9FE48FEF739F84020ADF80400D3
:1027E00001A9FB48FEF732F81020ADF804008DF87F
:1027F000070001A9F648FEF729F81021F448FEF772
:10280000D0F80020ADF808004FF48270ADF80A004F
:102810004FF40060ADF80C000220ADF80E0001206E
:10282000ADF810004002ADF812000820ADF8140019
:102830000020ADF816000720ADF8180002A9E54801
:10284000FEF748FB0121E348FEF7E9FB07B000BDB6
:1028500010B5044600BF0221DE48FEF764FC0028E4
:10286000F9D02146DB48FEF70BFC00BF0121D94817
:10287000FEF759FC0028F9D0D648FEF703FC10BD3E
:1028800010B500241021D248FEF78DF84FF4FC401B
:10289000FFF7DEFF4FF6FF70FFF7DAFF0446102167
:1028A000CB48FEF77EF8204610BD10B51021C84871
:1028B000FEF779F84FF48440FFF7CAFF4FF6FF7038
:1028C000FFF7C6FFC44908801021C148FEF769F828
:1028D0001021BF48FEF767F84FF48040FFF7B8FFBC
:1028E0004FF6FF70FFF7B4FFBB4948801021B8488E
:1028F000FEF757F81021B648FEF755F84FF48C4014
:10290000FFF7A6FF4FF6FF70FFF7A2FFB2498880DE
:102910001021AF48FEF745F81021AD48FEF743F807
:102920004FF48840FFF794FF4FF6FF70FFF790FFDA
:10293000A949C8801021A648FEF733F81021A44801
:10294000FEF731F84FF49440FFF782FF4FF6FF7027
:10295000FFF77EFFA049088110219D48FEF721F86E
:1029600010219B48FEF71FF84FF49040FFF770FFCF
:102970004FF6FF70FFF76CFF97494881102194488C
:10298000FEF70FF8944810BD2DE9F0410446618828
:10299000228841EA02414FF4347201FB02F003F055
:1029A0005EFC074600228D4B03F0E5FB054603F075
:1029B0007AFC8B490860E188A28841EA02414FF421
:1029C000347201FB02F003F04AFC07460022834BFD
:1029D00003F0D1FB054603F066FC8149486061893C
:1029E000228941EA02414FF4347201FB02F003F004
:1029F00036FC07460022794B03F0BDFB054603F089
:102A000052FC774988600846BDE8F08110B5102176
:102A10006F48FDF7C8FF4FF49050FFF719FF4FF6CE
:102A2000FF70FFF715FF6F49088010216848FDF718
:102A3000B8FF10216648FDF7B6FF4FF48050FFF74E
:102A400007FF4FF6FF70FFF703FF6649488010212C
:102A50005F48FDF7A6FF10215D48FDF7A4FF4FF486
:102A6000B050FFF7F5FE4FF6FF70FFF7F1FE5D493E
:102A7000888010215648FDF794FF10215448FDF737
:102A800092FF4FF4A050FFF7E3FE4FF6FF70FFF701
:102A9000DFFE5449C88010214D48FDF782FF102108
:102AA0004B48FDF780FF4FF4D050FFF7D1FE4FF6B3
:102AB000FF70FFF7CDFE4B49088110214448FDF718
:102AC00070FF10214248FDF76EFF4FF4C050FFF732
:102AD000BFFE4FF6FF70FFF7BBFE42494881102151
:102AE0003B48FDF75EFF3F4810BD2DE9F0478246A9
:102AF000BAF80210BAF8002041EA024003F0AFFB36
:102B00008046394A394B03F0C4FA06460022384B56
:102B100003F031FB044603F0C6FB36490860BAF8FF
:102B20000610BAF8042041EA024003F098FB06467A
:102B30002D4A2E4B03F0ADFA804600222C4B03F0B9
:102B40001AFB044603F0AFFB2A494860BAF80A10A2
:102B5000BAF8082041EA024003F081FB0646224A07
:102B6000224B03F096FA04460022214B03F003FBAC
:102B7000804603F098FB1F4988600846BDE8F0874F
:102B800010B510211248FDF70EFF4FF4F050FFF77B
:102B90005FFE4FF6FF70FFF75BFE174908801021BC
:102BA0000B48FDF7FEFE10210948FDF7FCFE4FF42F
:102BB000E050FFF74DFE4FF6FF70FFF749FE0E495C
:102BC000488010210248FDF7ECFE1021004815E076
:102BD0000008014000300140781400200000E0416E
:102BE00084140020901400207B14AE47E17A943FB7
:102BF0000000F0409C140020A8140020FDF7D3FE34
:102C00004FF40850FFF724FE4FF6FF70FFF720FE49
:102C10007B49888010217B48FDF7C3FE102179484D
:102C2000FDF7C1FE4FF40050FFF712FE4FF6FF70A4
:102C3000FFF70EFE7249C88010217248FDF7B1FE01
:102C400010217048FDF7AFFE4FF41850FFF700FE5B
:102C50004FF6FF70FFF7FCFD6949088110216948B4
:102C6000FDF79FFE10216748FDF79DFE4FF41050C1
:102C7000FFF7EEFD4FF6FF70FFF7EAFD6049488170
:102C800010216048FDF78DFE5D4810BD2DE9F0472D
:102C90008246BAF80210BAF8002041EA024003F076
:102CA000DEFA8046584A594B03F0F3F906460022F3
:102CB000574B03F060FA044603F0F5FA55490860F3
:102CC000BAF80610BAF8042041EA024003F0C7FA45
:102CD00006464D4A4D4B03F0DCF9804600224C4B32
:102CE00003F049FA044603F0DEFA4A494860BAF8AC
:102CF0000A10BAF8082041EA024003F0B0FA06468A
:102D0000414A424B03F0C5F904460022404B03F010
:102D100032FA804603F0C7FA3E4988600846BDE8AB
:102D2000F08710B510213748FDF73DFE4FF42050D5
:102D3000FFF78EFD4FF6FF70FFF78AFD36490880DA
:102D400010213048FDF72DFE10212E48FDF72BFEF7
:102D50004FF42850FFF77CFD4FF6FF70FFF778FD2A
:102D60002D49488010212748FDF71BFE10212548DA
:102D7000FDF719FE4FF43050FFF76AFD4FF6FF7074
:102D8000FFF766FD2449888010211E48FDF709FEE3
:102D9000214810BD2DE9F0410446218808B203F016
:102DA0005EFA07461D4A1E4B03F073F9054603F011
:102DB0007AFA1C490860618808B203F050FA0746A5
:102DC000164A174B03F065F9054603F06CFA1549EE
:102DD0004860A18808B203F042FA07460F4A104B38
:102DE00003F057F9054603F05EFA0E49886008467D
:102DF000BDE8F08110B54FF6FF70FFF729FD10BD5B
:102E0000A8140020000801402D431CEBE2364A3F85
:102E10000000F040B41400204C0000209A999999C9
:102E20009999B93FC014002008B54FF4E060FDF750
:102E300089FA06208DF8000000208DF801008DF839
:102E4000020001208DF803006846FDF780FA08BDF6
:102E50000EB501210920FDF7AFFFFFF7E5FF0120C7
:102E6000ADF8080048208DF80B0002A91C48FDF7BA
:102E7000EDFC00210120FDF7FDFD01200090002068
:102E80008DF8040008208DF8050001208DF806005B
:102E90006846FDF7FBFB0EBD0EB501210520FDF7D1
:102EA0008BFFFFF7C1FF0120ADF8080048208DF827
:102EB0000B0002A90B48FDF7C9FC00210846FDF7ED
:102EC000D9FD0120009000208DF804000C208DF821
:102ED000050001208DF806006846FDF7D7FB0EBD02
:102EE000000C01400008014008B501218020FDF7D9
:102EF00063FF8020ADF8000010208DF80300032050
:102F00008DF8020069460848FDF7A0FC4FF4807078
:102F1000ADF8000069460448FDF798FC4FF4C07115
:102F20000148FDF73EFD08BD001C014070B50420BE
:102F3000FDF758FA5E4800685E4AB0FBF2F1B1F165
:102F4000807F01D301201DE021F07F40401E4FF023
:102F5000E022506150170F22002807DA13071D0ED8
:102F6000554B00F00F04241F1D5503E013071C0EE2
:102F7000524B1C5400BF00204FF0E022906107200C
:102F80001061002008B100BFFEE74FF0E0200069AB
:102F900020F001004FF0E021086170BD01B5484903
:102FA000009808604FF0E020006940F001004FF009
:102FB000E021086100BF424800680028FBD14FF0C3
:102FC000E020006920F001004FF0E021086108BD19
:102FD00001B54FF47A72009901FB02F0FFF7DEFFB2
:102FE00008BD08B54FF4E060FDF7ACF91C208DF882
:102FF000000000208DF8010001208DF802008DF8FE
:1030000003006846FDF7A3F908BD0EB50121084687
:10301000FDF7DFFE4FF47A70ADF804004720ADF8FD
:1030200000000020ADF8020069464FF08040FEF736
:1030300085F901218807FEF7A3FF012211469007B9
:10304000FEF7F3FC01218807FEF7D4FC00210120E4
:10305000FDF7BFFE0EBD0EB501210220FDF7B9FE42
:103060004FF6FF70ADF804004720ADF800000020D7
:10307000ADF80600ADF8020069461248FEF75EF9A9
:103080000EBD0020104908604FF0E020006940F0BC
:1030900001004FF0E021086170474FF0E020006927
:1030A00020F001004FF0E0210861074800687047F8
:1030B0000000002040420F0018ED00E000E400E0B6
:1030C00054000020000400404400002000B59DB0E2
:1030D000FFF756FDFE49086008460068FFF7D6FD79
:1030E000FC490860084600680068FB490860F94828
:1030F00000684068F9490860F64800688068F84947
:103100000860FFF70EFEF249086008460068FFF706
:1031100041FEF0490860084600680068F14908600F
:10312000EC4800684068F0490860EA480068806838
:10313000EE490860EA48006803F0A2F8CDE91601FC
:10314000E548006803F09CF8CDE91401DDE9162399
:1031500004F0DAFC81F00041CDE9180103F0A3F896
:103160001A90DE48006803F08BF8CDE9160104F0F0
:103170007BFACDE9180103F096F81B901B9803F039
:103180007FF8CDE90A0104F07FFDCDE90E011A9820
:1031900003F076F8CDE9060104F0CCFDCDE90A0193
:1031A000D248006803F06CF8CDE90801DDE90A2394
:1031B00002F06FFFCDE90C01DDE90E2302F069FF9B
:1031C000CDE912011B9803F05BF8CDE9060104F08C
:1031D000B1FDCDE90A011A9803F052F8CDE90201D8
:1031E00004F0A8FDCDE90601BF48006803F048F8E7
:1031F000CDE90401DDE9062302F04BFFCDE908012A
:10320000DDE90A2302F045FFCDE90E011A9803F02B
:1032100037F8CDE9060104F037FDCDE90A01B148E0
:10322000006803F02DF8CDE90801DDE90A2302F07A
:1032300030FFCDE90C01DDE90E2302F083FECDE97C
:103240001001DDE9122302F07DFECDE916011B9885
:1032500003F016F8CDE90A0104F06CFDCDE90E018A
:10326000A248006803F00CF8CDE90C01DDE90E235B
:1032700002F00FFFCDE912011B9803F001F8CDE930
:103280000A0104F001FDCDE90E019748006802F043
:10329000F7FFCDE90C01DDE90E2302F0FAFECDE9DE
:1032A0001001DDE9122302F0EEFECDE91401DDE9A3
:1032B000162304F029FC81F00041CDE9180102F049
:1032C000F2FF1C901C9802F0DBFF0022884BCDE936
:1032D0000C0102F0DEFECDE90E0104F02BFDCDE97C
:1032E00012011B9802F0CCFF0022814BCDE90801AE
:1032F00002F0CFFECDE90A0104F01CFDCDE90E017C
:103300001A9802F0BDFF0022794BCDE9080102F0C6
:10331000C0FECDE90A0104F00DFDCDE90C01DDE9A7
:103320000E2302F0B6FECDE91001DDE9122302F012
:10333000B0FECDE916011C9802F0A2FF00226C4BF2
:10334000CDE90C0102F0A5FECDE90E0104F09CFCD4
:10335000CDE912011B9802F093FF0022644BCDE9E6
:10336000080102F096FECDE90A0104F08DFCCDE9DA
:103370000E011A9802F084FF00225D4BCDE908018E
:1033800002F087FECDE90A0104F07EFCCDE90C01D4
:10339000DDE90E2302F07DFECDE91001DDE9122307
:1033A00002F077FECDE91401DDE9162302F0CAFD33
:1033B000CDE9180102F077FF4E4908601C9802F031
:1033C0005FFF00224A4BCDE90C0102F062FECDE91D
:1033D0000E0104F0AFFCCDE912011B9802F050FF82
:1033E0000022434BCDE9080102F053FECDE90A016A
:1033F00004F0A0FCCDE90E011A9802F041FF002272
:103400003B4BCDE9080102F044FECDE90A0104F08E
:103410003BFCCDE90C01DDE90E2302F03AFECDE9DB
:103420001001DDE9122302F034FECDE916011C98EB
:1034300002F026FF00222E4BCDE90C0102F029FEFE
:10344000CDE90E0104F020FCCDE912011B9802F039
:1034500017FF0022264BCDE9080102F01AFECDE944
:103460000A0104F011FCCDE90E011A9802F008FFE0
:1034700000221F4BCDE9080102F00BFECDE90A0145
:1034800004F058FCCDE90C01DDE90E2302F001FE49
:10349000CDE91001DDE9122302F0FBFDCDE91401B5
:1034A000DDE9162302F0EFFDCDE9180102F0FBFE85
:1034B000114908601C9802F0E3FE00220C4BCDE994
:1034C0000C0102F0E6FDCDE90E0104F033FC15E03D
:1034D0009C000020A0000020B8000020BC000020BC
:1034E000C0000020D0000020D4000020D800002020
:1034F0000000E03FA4000020A8000020CDE9120158
:103500001B9802F0BDFE0022FE4BCDE9080102F03F
:10351000C0FDCDE90A0104F0B7FBCDE90E011A9810
:1035200002F0AEFE0022F74BCDE9080102F0B1FD3A
:10353000CDE90A0104F0FEFBCDE90C01DDE90E2323
:1035400002F0A7FDCDE91001DDE9122302F0A1FD93
:10355000CDE916011C9802F093FE0022E94BCDE95B
:103560000C0102F096FDCDE90E0104F08DFBCDE9D2
:1035700012011B9802F084FE0022E24BCDE9080103
:1035800002F087FDCDE90A0104F0D4FBCDE90E017C
:103590001A9802F075FE0022DA4BCDE9080102F01C
:1035A00078FDCDE90A0104F06FFBCDE90C01DDE9FE
:1035B0000E2302F06EFDCDE91001DDE9122302F0C9
:1035C00068FDCDE91401DDE9162302F0BBFCCDE96D
:1035D000180102F068FECC4908601C9802F050FE09
:1035E0000022C84BCDE90C0102F053FDCDE90E01DC
:1035F00004F04AFBCDE912011B9802F041FE0022C3
:10360000C04BCDE9080102F044FDCDE90A0104F008
:1036100091FBCDE90E011A9802F032FE0022B94B5F
:10362000CDE9080102F035FDCDE90A0104F082FB85
:10363000CDE90C01DDE90E2302F02BFDCDE91001EF
:10364000DDE9122302F025FDCDE916011C9802F0F8
:1036500017FE0022AB4BCDE90C0102F01AFDCDE9BB
:103660000E0104F067FBCDE912011B9802F008FE81
:103670000022A44BCDE9080102F00BFDCDE90A01BF
:1036800004F002FBCDE90E011A9802F0F9FD0022C8
:103690009C4BCDE9080102F0FCFCCDE90A0104F0E5
:1036A000F3FACDE90C01DDE90E2302F0F2FCCDE9DD
:1036B0001001DDE9122302F0ECFCCDE91401DDE993
:1036C000162302F0E0FCCDE9180102F0ECFD8F4971
:1036D00008601A9802F0D4FD8D4A8E4BCDE9160190
:1036E00002F0D7FCCDE9180102F0DDFD1A901B981D
:1036F00002F0C6FD864A874BCDE9160102F0C9FCEF
:10370000CDE9180102F0CFFD1B901C9802F0B8FD26
:103710007F4A804BCDE9160102F0BBFCCDE91801D0
:1037200002F0C1FD1C9000211C9802F0D9FD04D2CA
:1037300079491C9802F038FB1C9077491C9802F0DC
:10374000D9FD04D274491C9802F080FB1C901A9891
:1037500002F096FDCDE918011B9802F091FDCDE92C
:1037600016011C9802F08CFDCDE914016748006831
:1037700002F086FDCDE912016348006802F080FD89
:10378000CDE910016548006802F07AFDCDE90E012F
:103790006348006802F074FDCDE90C01DDE9180111
:1037A000CDE90A01DDE91601CDE90801DDE91401E1
:1037B000CDE90601DDE91201CDE90401DDE91001E1
:1037C000CDE90201DDE90E01CDE900015548DDE951
:1037D0000C2302F0A7FF1DB000BD2DE9F047044601
:1037E0004FF07C51204602F037FB814625462E469D
:1037F0004D48A0EB660635462946484602F02CFBAC
:103800008246294602F028FB80464FF07F5102F0A5
:1038100020FB0746294602F01FFB05462846BDE867
:10382000F0870FB5B3B039483599006802F014FB42
:103830000E9035483499006802F00EFB0C90374822
:10384000006880F000400A90339902F005FB0B906D
:103850000C9902F0FBFA0D900E9902F0F7FA4FF076
:103860007C510F9002F0F8FA2D90284834990068A6
:1038700002F0F2FA0E9024483599006802F0ECFA52
:103880000C9027480168339802F0E6FA0B900C99E7
:1038900002F08AFA0D900E9902F0D8FA4FF07C519E
:1038A0000F9002F0D9FA2C9018480168339802F072
:1038B000D3FA0E9019483599006802F0CDFA0C90B1
:1038C00017483499006802F0C7FA0B900C9902F07F
:1038D000BDFA0D900E9902F067FA4FF07C510F90EF
:1038E00002F0BAFA2B9008480168339802F0B4FA53
:1038F0000E900A483499006802F0AEFA0C9008481D
:10390000359913E00000E03FAC000020B00000203B
:10391000CB67791EDCA54C400000B443A800002012
:10392000A4000020B07E0008DF59375F006802F075
:1039300093FA0B900C9902F037FA0D900E9902F061
:1039400085FA4FF07C510F9002F086FA2A90002100
:10395000369802F0C5FC09D10021389802F0C0FC6D
:1039600004D10021399802F0BBFC7DD0399908467A
:1039700002F072FA0E903899084602F06DFA0C9037
:103980003699084602F068FA0B900C9902F00CFA8E
:103990000D900E9902F008FA0F90FFF71EFF32907B
:1039A0003299369802F058FA36903299389802F0E7
:1039B00053FA38903299399802F04EFA39903C997E
:1039C000084602F049FA0E903B99084602F044FA84
:1039D0000C903A99084602F03FFA0B900C9902F0CD
:1039E000E3F90D900E9902F0DFF90F90FFF7F5FE65
:1039F000329032993A9802F02FFA3A9032993B98E5
:103A000002F02AFA3B9032993C9802F025FA3C9059
:103A1000FE4801684FF0804002F01EFA0F903A997C
:103A200002F01AFA2790F94801684FF0804002F03E
:103A300013FA0F903B9902F00FFA2690F3480168B1
:103A40004FF0804002F008FA0F903C9902F004FA1F
:103A50002590EF4801684FF0804002F0FDF90F908B
:103A60003A9902F0F9F900E0FEE32490E748016892
:103A70004FF0804002F0F0F91F90E54801684FF0E8
:103A8000804002F0E9F91E90E24801684FF0804062
:103A900002F0E2F91D90E04801684FF0804002F02A
:103AA000DBF91C90D94801684FF0804002F0D4F94E
:103AB0000F90D84801680F9802F0CEF91B90D548B6
:103AC00001684FF0804002F0C7F90F90D2480168BA
:103AD0000F9802F0C1F91A90CC480168006802F012
:103AE000BBF91990CA480168C848006802F0B4F9E7
:103AF0001890C8480168C548006802F0ADF91790F1
:103B0000C5480168C148006802F0A6F91690C0488F
:103B10000168006802F0A0F91590BE480168BC4831
:103B2000006802F099F91490BB480168B848006831
:103B300002F092F91390B7480168006802F08CF91E
:103B40001290B5480168B348006802F085F91190F9
:103B5000B1480168006802F07FF9109010993A9816
:103B600002F07AF90F9012993A9802F075F90D90D7
:103B70003C991E9802F070F90990A74801680998CD
:103B800002F06AF90B903B991E9802F065F90790D4
:103B9000A0480168079802F05FF9099015993A98D2
:103BA00002F05AF907909B480168259802F054F9F1
:103BB000059099480168269802F04EF903901999EA
:103BC0003A9802F049F90290039902F03FF9049003
:103BD000059902F0E9F80690079902F0E5F80890D7
:103BE000099902F0E1F80A900B9902F0DDF80C90C7
:103BF0000D9902F02BF90E900F9902F027F92990F8
:103C000010993B9802F028F90F903C991D9802F00A
:103C100023F90B90804801680B9802F01DF90D9074
:103C200012993B9802F018F90B9015993B9802F005
:103C300013F9099077480168249802F00DF907906C
:103C400073480168259802F007F9059019993B9887
:103C500002F002F9039070480168279802F0FCF81E
:103C60000290039902F0A0F80490059902F0EEF892
:103C70000690079902F098F80890099902F0E6F882
:103C80000A900B9902F090F80C900D9902F08CF8C4
:103C90000E900F9902F0DAF828902899084602F061
:103CA000DBF80A902999084602F0D6F809900A999B
:103CB00002F07AF80B9002F0E3FACDE90C0104F07F
:103CC00091F8CDE90E0102F0EEFA239010993C989C
:103CD00002F0C2F80F9012993C9802F0BDF80D90D6
:103CE0003B991D9802F0B8F809904B480168099873
:103CF00002F0B2F80B9015993C9802F0ADF80990DB
:103D000045480168249802F0A7F8079019993C9853
:103D100002F0A2F805903E480168269802F09CF84F
:103D20000390279880F0004001903A48016801987C
:103D300002F092F80290039902F036F80490059987
:103D400002F032F80690079902F02EF808900999CF
:103D500002F07CF80A900B9902F026F80C900D996D
:103D600002F074F80E900F9902F01EF822904FF0B6
:103D70008040239902F070F821904FF08040229902
:103D800002F06AF820904FF07C50159902F05EF82E
:103D90000790129902F05AF80890229902F05CF804
:103DA0000A901399179801F0FFFF0890239902F0E9
:103DB00053F809900A9901F0F7FF0B903C9902F033
:103DC00045F80D9013480168239802F045F80C90CF
:103DD0000D9902F041F80F901199189801F0E4FF45
:103DE0000690229902F038F808901699149802F07B
:103DF0002DF80690239902F02FF80790089901F00A
:103E0000D3FF09903B9902F021F807E0A4000020BD
:103E1000A8000020AC000020B00000200B90FE485D
:103E20000168229802F018F80990239880F0004069
:103E30000790FA480168079802F00EF8089009996F
:103E400001F0B2FF0A900B9902F006F80D90179955
:103E5000139801F0FBFF0490229901F0FDFF0690FA
:103E60004FF07C50129901F0F1FF0390109901F08E
:103E7000EDFF0490239901F0EFFF0590069901F002
:103E800093FF07903A9901F0E1FF0990E448016837
:103E9000229801F0E1FF0890099901F0DDFF0B90F5
:103EA0004FF08040189901F0D7FF05901A9901F062
:103EB0007BFF0690389901F0C9FF07901E9901F029
:103EC000CBFF09904FF08040139901F0C5FF04909B
:103ED0001B9901F0BBFF0590369901F0B7FF0790E1
:103EE0001D9880F000400690079901F0B5FF0890FA
:103EF000099901F059FF0A900B9901F0A7FF0C9066
:103F00000D9901F051FF0E900F9901F04DFF319086
:103F10004FF07C50159901F099FF0790129901F02C
:103F200095FF0890229901F097FF0A90139917982E
:103F300001F03AFF0890239901F08EFF09900A9949
:103F400001F032FF0B903C9901F080FF0D90B248D8
:103F50000168209801F080FF0B90B0480168239819
:103F600001F07AFF0A900B9901F070FF0C900D9907
:103F700001F072FF0F901199189801F015FF06904B
:103F8000229901F069FF08901699149801F05EFFDC
:103F90000690239901F060FF0790089901F004FF53
:103FA00009903B9901F052FF0B909E4801682298BE
:103FB00001F052FF09909A480168239801F04CFFE4
:103FC0000890099901F0F0FE0A900B9901F044FF66
:103FD0000D901799139801F039FF0490229901F080
:103FE0003BFF06904FF07C50129901F02FFF039099
:103FF000109901F02BFF0490239901F02DFF0590FB
:10400000069901F0D1FE07903A9901F01FFF09903F
:1040100082480168229801F01FFF0890099901F079
:104020001BFF0B904FF08040129901F015FF049098
:104030004FF08040159901F00FFF4FF07E51029034
:1040400001F007FF0390049901F000FF05903999F2
:1040500001F0FCFE0790704801684FF0814001F0CC
:10406000FBFE0690079901F0F7FE09904FF08040A3
:10407000189901F0F1FE03901A9901F095FE049051
:10408000389901F0E3FE05901F9901F0E5FE0790D5
:104090004FF08040139901F0DFFE03901B9901F06F
:1040A000D5FE0490369901F0D1FE05901C9901F0DF
:1040B000D3FE0690079901F077FE0890099901F068
:1040C000C5FE0A900B9901F06FFE0C900D9901F05E
:1040D0006BFE0E900F9901F067FE30904FF07C5010
:1040E000159901F0B3FE0790129901F0AFFE089008
:1040F000229901F0B1FE0A901399179801F054FE2D
:104100000890239901F0A8FE09900A9901F04CFE4D
:104110000B903C9901F09AFE0D904148016820985F
:1041200001F09AFE0B903F480168239801F094FE3D
:104130000A900B9901F08AFE0C900D9901F08CFE0B
:104140000F901199189801F02FFE0690229901F016
:1041500083FE08901699149801F078FE0690239932
:1041600001F07AFE0790089901F01EFE09903B9934
:1041700001F06CFE0B9029480168229801F06CFE5A
:10418000099025480168239801F066FE0890099976
:1041900001F00AFE0A900B9901F05EFE0D9017994E
:1041A000139801F053FE0490229901F055FE0690F9
:1041B0004FF07C50129901F049FE0390109901F0E4
:1041C00045FE0490239901F047FE0590069901F001
:1041D000EBFD07903A9901F039FE0990114801680A
:1041E000229801F039FE0790219880F00040059058
:1041F0000B480168059801F02FFE0690079901F021
:1042000025FE0890099901F027FE0B904FF08040A1
:10421000129901F021FE07E0A8000020B000002064
:10422000AC000020A400002004904FF080401599BD
:1042300001F012FE4FF07E51029001F00AFE039051
:10424000049901F003FE0590399901F0FFFD0790F4
:10425000FE4801684FF0814001F0FEFD069007998D
:1042600001F0FAFD099000E060E14FF080401899FC
:1042700001F0F2FD03901A9901F096FD049038992F
:1042800001F0E4FD05901C9901F0E6FD07904FF068
:104290008040139901F0E0FD02901B9901F0D6FDDA
:1042A0000390369901F0D2FD05901F9880F00040F0
:1042B0000490059901F0D0FD0690079901F074FD76
:1042C0000890099901F0C2FD0A900B9901F06CFD6C
:1042D0000C900D9901F068FD0E900F9901F064FDAE
:1042E0002F904FF07C50159901F0B0FD0790129976
:1042F00001F0ACFD0890229901F0AEFD0A901399EF
:10430000179801F051FD0890239901F0A5FD09903F
:104310000A9901F049FD0B903C9901F097FD0D9031
:10432000CB480168239801F097FD0C900D9901F09E
:1043300093FD0F901199189801F036FD069022997F
:1043400001F08AFD08901699149801F07FFD0690FF
:10435000239901F081FD0790089901F025FD09904E
:104360003B9901F073FD0B90B8480168229801F069
:1043700073FD0990239880F000400790B5480168CC
:10438000079801F069FD0890099901F00DFD0A9068
:104390000B9901F061FD0D901799139801F056FDEE
:1043A0000490229901F058FD06904FF07C5012992C
:1043B00001F04CFD0390109901F048FD0490239901
:1043C00001F04AFD0590069901F0EEFC07903A993C
:1043D00001F03CFD09909E480168229801F03CFDE7
:1043E0000790219880F0004005909B48016805984F
:1043F00001F032FD0690079901F0D6FC089009996A
:1044000001F02AFD0B904FF08040189901F024FD37
:1044100005901A9901F0C8FC0690389901F016FD34
:1044200007901D9901F018FD09904FF080401399F5
:1044300001F012FD05901B9901F008FD06903699D8
:1044400001F004FD07901E9901F006FD08900999FE
:1044500001F0AAFC0A900B9901F0A6FC0C900D99B2
:1044600001F0A2FC0E900F9901F09EFC2E902E9967
:10447000084601F0F1FC0E902F99084601F0ECFC83
:104480000C903099084601F0E7FC0A9031990846F3
:1044900001F0E2FC09900A9901F086FC0B900C995E
:1044A00001F082FC0D900E9901F07EFC0F90FFF759
:1044B00094F93290DDE9310101F0CEFC319032996E
:1044C000309801F0C9FC309032992F9801F0C4FC6B
:1044D0002F9032992E9801F0BFFC2E905F483199B1
:1044E000006801F0B9FC0F902D9901F0B2FC2D90FD
:1044F0005A483099006801F0AFFC0F902C9901F0F8
:10450000A8FC2C9055482F99006801F0A5FC0F904D
:104510002B9901F09EFC2B9050482E99006801F0D9
:104520009BFC0F902A9901F094FC2A904C4801685A
:104530002D9801F091FC4FF080410E9001F08CFC21
:104540000F90444801680F9801F02EFC4149086023
:10455000434801682C9801F07FFC4FF080410E9099
:1045600001F07AFC0F903A4801680F9801F01CFCAA
:10457000374908603A4801682B9801F06DFC4FF00C
:1045800080410E9001F068FC0F90304801680F9850
:1045900001F00AFC2D490860314801682A9801F0B1
:1045A0005BFC4FF080410E9001F056FC0F902A48C2
:1045B00001680F9801F0F8FB274908600846016878
:1045C000006801F049FC0E9020480168006801F085
:1045D00043FC0C901E480168006801F03DFC0A9005
:1045E0001C480168006801F037FC09900A9901F045
:1045F000DBFB0B900C9901F0D7FB0D900E9901F0AD
:10460000D3FB0F90FFF7E9F8329012483299006817
:1046100001F022FC0F4908600D483299006801F052
:104620001BFC0B49086009483299006801F014FC32
:104630000649086008483299006801F00DFC0649F7
:104640000860084601684FF080400BE0AC00002095
:10465000A8000020A4000020B0000020940000204A
:10466000B400002001F0F8FB0390FE4801680398B5
:1046700001F0F2FB0590FC4801684FF0404001F06A
:10468000EBFB0390F8480168039801F0E5FB049008
:10469000059901F0DBFB4FF07E51069001F084FBA1
:1046A000079001F0EDFDCDE90A01F04801684FF0F7
:1046B000804001F0D1FB0490EA480168049801F0C1
:1046C000CBFB0690E84801684FF0804001F0C4FB46
:1046D0000490E7480168049801F0BEFB0590069934
:1046E00001F0B4FB079001F0CBFDCDE90801DDE955
:1046F0000A2303F009FA81F00041DE4ADE4BCDE9DE
:104700000C0101F0C6FCCDE90E0101F0CCFDDB4946
:1047100008600021D948006801F0E2FD06D2D849BE
:10472000D648006801F040FBD4490860D449D3481A
:10473000006801F0DFFD06D2D149D048006801F0E1
:1047400085FBCE490860C94801684FF0804001F000
:1047500083FB0690C4480168069801F07DFB089031
:10476000C34801684FF0804001F076FB0690BD48D9
:104770000168069801F070FB0790089901F014FB9E
:10478000099001F07DFDCDE90A0102F06DFFB94A03
:10479000B94BCDE90C0101F07CFCCDE90E0101F033
:1047A00082FDB8490860B24801684FF0804001F0CE
:1047B00053FB0390AE480168039801F04DFB059050
:1047C000A94801684FF0404001F046FB0390A6481D
:1047D0000168039801F040FB0490059901F036FB55
:1047E0004FF07E51069001F0DFFA079001F048FD8E
:1047F000CDE90A019C4801684FF0804001F02CFB94
:10480000049098480168049801F026FB06909748A8
:1048100001684FF0404001F01FFB0490944801688C
:10482000049801F019FB0590069901F0BDFA079074
:1048300001F026FDCDE90801DDE90A2303F064F962
:1048400081F000418B4A8C4BCDE90C0101F021FC39
:10485000CDE90E0101F027FD8B49086037B000BD9E
:104860004FF07E508149086000207E4908608049F1
:1048700008607D49086070470FB5ADB07B4801689E
:10488000006801F0E9FA1D907748016877480068F0
:1048900001F0E2FA1C90764801687448006801F063
:1048A000DBFA1B906F4801687048006801F0D4FA89
:1048B0001A906D480168006801F0CEFA19906C48B2
:1048C00001686948006801F0C7FA189065480168F6
:1048D0006548006801F0C0FA1790654801680068F3
:1048E00001F0BAFA16905F4801686148006801F06B
:1048F000B3FA15905B480168006801F0ADFA1490B6
:104900003399084601F0A8FA12903299084601F04E
:10491000A3FA10903099084601F09EFA0F90109972
:1049200001F042FA1190129901F03EFA1390FEF74D
:1049300054FF2C902C99309801F08EFA30902C99DD
:10494000329801F089FA32902C99339801F084FA68
:1049500033903699084601F07FFA1290359908464F
:1049600001F07AFA10903499084601F075FA0F9028
:10497000109901F019FA1190129901F015FA13909B
:10498000FEF72BFF2C902C99349801F065FA3490A7
:104990002C99359801F060FA35902C99369801F0F1
:1049A0005BFA36901B99179801F0FEF90C904FF0C6
:1049B0008040369901F050FA0B900C9901F04CFAB6
:1049C0000D9001F05DFCCDE910011A99189801F0E5
:1049D0003DFA08904FF08040359901F03DFA07907C
:1049E000089901F039FA099001F04AFCCDE90C016F
:1049F000149801F045FCCDE90401169801F040FC43
:104A00000022224BCDE9000101F040FBCDE902017B
:104A1000DDE9042301F037FBCDE908014FF08040C8
:104A2000349901F019FA059001F02AFCCDE906014C
:104A3000DDE9082301F02DFBCDE90A01DDE90C23B6
:104A400001F080FACDE90E01DDE9102301F07AFAD8
:104A5000CDE9120101F027FC2B901C99159801F06B
:104A6000F5F915E0B0000020A8000020A400002007
:104A7000AC000020CB67791EDCA54C40380000203C
:104A80000000B44334000020300000200000E03F6C
:104A90000C904FF08040369901F0DEF90B900C99A4
:104AA00001F0DAF90D9001F0EBFBCDE9100114985B
:104AB00001F0E6FBCDE90401199801F0E1FB0022C9
:104AC000FE4BCDE9000101F0E1FACDE90201DDE99B
:104AD000042301F0D8FACDE908014FF08040359960
:104AE00001F0BAF9059001F0CBFBCDE90601DDE953
:104AF000082301F0CEFACDE90C011A99189801F0BB
:104B000053F908904FF08040349901F0A5F90790CF
:104B1000089901F0A1F9099001F0B2FBCDE90A0171
:104B2000DDE90C2301F00EFACDE90E01DDE91023D9
:104B300001F008FACDE9120101F0B5FB2A901698B0
:104B400001F09EFBCDE90801199801F099FB0022C4
:104B5000DA4BCDE9040101F099FACDE90601DDE96E
:104B6000082301F090FACDE90C014FF0804036990E
:104B700001F072F9099001F083FBCDE90A01DDE94A
:104B80000C2301F086FACDE910011C99159801F06B
:104B90000BF90A904FF08040359901F05DF90990CA
:104BA0000A9901F059F90C901B99179801F04EF9E8
:104BB0000A904FF08040349901F04EF909900A991B
:104BC00001F04AF90B900C9901F0EEF80D9001F00C
:104BD00057FBCDE90E01DDE9102301F0B3F9CDE972
:104BE000120101F060FB29902A99084601F034F97E
:104BF00012902B99084601F02FF91190129901F0AB
:104C0000D3F8139003F014F92790299828901B9952
:104C1000179801F01BF94FF08041139001F01CF937
:104C2000269015991C9801F0BFF84FF08041139021
:104C300001F012F9259019991D9801F007F91290C9
:104C4000169901F003F91390149901F0ADF824902E
:104C50001B99179801F0FAF811904FF080402899AD
:104C600001F0FAF81090119901F0F6F813901A99E2
:104C7000189801F099F811904FF08040279901F0B1
:104C8000EBF81090119901F0E7F81290139901F0E8
:104C90008BF8239015991C9801F086F80C904FF032
:104CA0008040289901F0D8F80B900C9901F0D4F8C5
:104CB0000D9001F0E5FACDE91001149801F0E0FA49
:104CC000CDE90801199801F0DBFA00227B4BCDE910
:104CD000040101F0DBF9CDE90601DDE9082301F06B
:104CE000D2F9CDE90C014FF08040279901F0B4F8DA
:104CF000099001F0C5FACDE90A01DDE90C2301F0C4
:104D0000C8F9CDE90E01DDE9102301F01BF9CDE969
:104D1000120101F0C8FA2290169801F0B1FACDE91B
:104D20000801199801F0ACFA0022644BCDE90401A6
:104D300001F0ACF9CDE90601DDE9082301F0A3F9A2
:104D4000CDE90C014FF08040289901F085F80990D9
:104D500001F096FACDE90A01DDE90C2301F099F999
:104D6000CDE910011C99159801F070F80C904FF0E6
:104D70008040279901F070F80B900C9901F06CF8C5
:104D80000D9001F07DFACDE90E01DDE9102301F06F
:104D9000D9F8CDE9120101F086FA219022993698CE
:104DA00001F05AF811902199359801F055F81090BA
:104DB000119901F04BF813902599339801F04CF8B4
:104DC00011902499329801F047F81090119901F050
:104DD0003DF81290139900F0E7FF20902199349844
:104DE00001F03AF811902399369801F035F81090B7
:104DF000119901F02BF813902499309801F02CF8B8
:104E000011902699339801F027F81090119901F02C
:104E10001DF81290139900F0C7FF1F902399359841
:104E200001F01AF811902299349801F015F81090B9
:104E3000119901F00BF813902699329801F00CF8B3
:104E400011902599309801F007F81090119900F011
:104E5000FDFF1290139900F0A7FF1E9000212098EB
:104E600001F03EFA7AD000211F9801F039FA75D08E
:104E700000211E9801F034FA70D01149209800F0FA
:104E8000EBFF12900F480168129800F0E5FF1390B5
:104E90000D480168139800F087FF0B490860084926
:104EA0001F9800F0D9FF129006480168129800F090
:104EB000D3FF139005480168139809E00000E03F14
:104EC0000AD7A33BB4000020580000205C0000205B
:104ED00000F06AFFFE490860FE491E9800F0BCFF22
:104EE0001290FD480168129800F0B6FF1390FB483D
:104EF0000168139800F058FFF84908604FF08040AF
:104F0000209900F0A9FF12902D9900F04DFF139009
:104F1000F3480168139800F047FF2D904FF0804050
:104F20001F9900F099FF12902E9900F03DFF139009
:104F3000E7480168139800F037FF2E904FF080404B
:104F40001E9900F089FF12902F9900F02DFF139009
:104F5000E2480168139800F027FF2F90E1482F994D
:104F6000006800F079FF1190DF482E99006800F08A
:104F700073FF0F90DD48006880F000400D902D9980
:104F800000F06AFF0E900F9900F060FF10901199E9
:104F900000F05CFF1290D0480168129800F05CFFAE
:104FA0001390D3480168139800F0FEFED0490860C2
:104FB000CC482E99006800F04FFF1190CA482F99F5
:104FC000006800F049FF0F90C94801682D9800F073
:104FD00043FF0E900F9900F0E7FE1090119900F03A
:104FE00035FF1290BC480168129800F035FF13900D
:104FF000BE480168139800F0D7FEBC490860B94864
:1050000001682D9800F028FF1190B8482F9900688A
:1050100000F022FF0F90B6482E99006800F01CFFA8
:105020000E900F9900F012FF1090119900F0BCFE45
:105030001290A9480168129800F00EFF1390AA4838
:105040000168139800F0B0FEA7490860084601689F
:105050002D9800F001FF1190A4482E99006800F0EF
:10506000FBFE0F90A2482F99006800F0F5FE0E900D
:105070000F9900F099FE1090119900F0E7FE129040
:1050800095480168129800F0E7FE13909548016872
:10509000139800F089FE934908600846016800688B
:1050A00000F0DAFE129090480168006800F0D4FE2B
:1050B00010908E480168006800F0CEFE0E908C487B
:1050C0000168006800F0C8FE0D900E9900F06CFEBB
:1050D0000F90109900F068FE1190129900F064FE94
:1050E0001390FEF77AFB2C9081482C99006800F011
:1050F000B3FE7F4908607D482C99006800F0ACFE43
:105100007A49086078482C99006800F0A5FE764935
:10511000086074482C99006800F09EFE7149086090
:10512000084601684FF0804000F096FE07906D48F9
:105130000168079800F090FE09906C4801684FF0F4
:10514000404000F089FE079068480168079800F029
:1051500083FE0890099900F079FE4FF07E510A9085
:1051600000F022FE0B9001F08BF8CDE90E016048B3
:1051700001684FF0804000F06FFE089059480168C8
:10518000089800F069FE0A90584801684FF0804086
:1051900000F062FE089054480168089800F05CFE38
:1051A00009900A9900F052FE0B9001F069F8CDE9E0
:1051B0000C01DDE90E2302F0A7FC81F000414D4A0D
:1051C0004D4BCDE9100100F064FFCDE9120101F073
:1051D0006AF84A49086000214848006801F080F8F0
:1051E00006D247494548006800F0DEFD43490860A3
:1051F00043494248006801F07DF806D240493F48E3
:10520000006800F023FE3D490860394801684FF00E
:10521000804000F021FE0A90344801680A9800F0AE
:105220001BFE0C90304801684FF0804000F014FEE7
:105230000A902C4801680A9800F00EFE0B900C9919
:1052400000F0B2FD0D9001F01BF8CDE90E0102F067
:105250000BFA284A284BCDE9100100F01AFFCDE9DE
:10526000120101F020F8274908601F4801684FF03B
:10527000804000F0F1FD07901B480168079800F09E
:10528000EBFD0990194801684FF0404000F0E4FD43
:10529000079016480168079800F0DEFD089009990C
:1052A00000F0D4FD4FF07E510A9000F07DFD0B9090
:1052B00000F0E6FFCDE90E010C4801684FF0804098
:1052C00000F0CAFD08900748016808981CE000003B
:1052D0005C0000200AD7A33BB4000020600000203F
:1052E00058000020B0000020AC000020A8000020E2
:1052F000A4000020CB67791EDCA54C4038000020BC
:105300000000B4433400002000F0A6FD0A90FE48DF
:1053100001684FF0404000F09FFD0890FB48016895
:10532000089800F099FD09900A9900F03DFD0B9056
:1053300000F0A6FFCDE90C01DDE90E2302F0E4FB4D
:1053400081F00041F24AF34BCDE9100100F0A1FEDB
:10535000CDE9120100F0A7FFEF49086031B000BDB0
:105360002DE9F04786B0ED48006800F089FF074658
:10537000E74AE84B00F0FFFE054600F094FF0446C4
:10538000E748006800F07CFF0746E14AE14B00F087
:10539000F2FE054600F087FF8146E248006800F013
:1053A0006FFF0746DA4ADB4B00F0E5FE054600F0EA
:1053B0007AFF8246DC480168DC480068DC4A1268F3
:1053C000DC4B1B68CDE90132CDE90301DA48006806
:1053D0000090DA482246494603685046FEF721FA13
:1053E00006B0BDE8F08710B5FDF79BFCD449086016
:1053F00008460068FDF7CEFCD24908600846006800
:105400000068D1490860CF48006840684860CD48CE
:1054100000688068886008460068C5490860CA4816
:105420004068C2490860C8488068BF49086010BD2C
:1054300010B5FFF7D8FFC5480168BD48006800F007
:1054400059FF03D2BA480068C0490860C0480168E3
:10545000B748006800F044FF03D2B5480068BC4973
:105460000860BC480168B148006800F043FF03D2FF
:10547000AE480068B7490860B7480168AB480068A3
:1054800000F02EFF03D2A9480068B3490860B34872
:105490000168A548006800F02DFF03D2A24800680B
:1054A000AE490860AE4801689F48006800F018FFE8
:1054B00003D29D480068AA49086010BD2DE9F04F4D
:1054C0008FB0A5480168A348006800F0BFFC0446FF
:1054D0009F4801689D48006800F0B8FC05462146D9
:1054E00000F008FF7ED89E4801689C48006800F0E4
:1054F000ADFC0446964801689448006800F0A6FC9C
:105500000546214600F0F6FE7AD84FF07E509549C8
:105510000860914801688F48006800F097FC0446D5
:105520008B4801688948006800F090FC05462146D8
:1055300000F0C8FC8C490860894801688748006809
:1055400000F084FC0446824801688048006800F04E
:105550007DFC0546214600F0B5FC844908607C4886
:1055600001687A48006800F01FFC804600F088FE61
:10557000064600227E4B00F08CFD044600F093FEB0
:105580007C490860744801687248006800F00CFCAF
:10559000824600F075FE06460F467348006800F02C
:1055A0006FFE82460022724B00F073FD8046324649
:1055B0003B4600F06EFD044600F075FE6E49086043
:1055C000674801686548006800F0EEFB824600F01D
:1055D00057FE06460F466548006800F051FE8246B9
:1055E000002200E00CE0624B00F053FD80463246A2
:1055F0003B4600F04EFD044600F055FE5F49086052
:10560000534801685148006800F020FC04465248A5
:1056100001685048006800F019FC0546214600F07A
:1056200069FE6FD24E4801684C48006800F00EFCDD
:105630000446494801684748006800F007FC0546F1
:10564000214600F057FE5DD8414801683F48006898
:1056500000F0FCFB0446404801683E48006800F04A
:10566000F5FB0546214600F02DFC3E4908604FF051
:105670007E503D4908603A4801683848006800F0AB
:10568000E5FB0446344801683248006800F0DEFB60
:105690000546214600F016FC344908602C48016894
:1056A0002A48006800F080FB824600F0E9FD0646CB
:1056B0000F462C48006800F0E3FD824600222C4B88
:1056C00000F0E7FC804632463B4600F0E2FC044630
:1056D00000F0E9FD274908601F4801681D4800687F
:1056E00000F062FB804600F0CBFD06460022204B16
:1056F00000F0CFFC044600F0D6FD1F4908601848B2
:1057000001683DE058E00000A4000020AC0000204B
:10571000CB67791EDCA54C4030000020CC00002077
:10572000C8000020C4000020D8000020D4000020C1
:10573000D0000020C0000020BC000020B8000020E5
:105740009C000020A0000020E41400206400002041
:10575000680000206C000020700000207400002011
:10576000780000207C0000208000002084000020C1
:105770000000E0BF880000208C0000209000002086
:10578000FA48006800F010FB064600F079FD8046FC
:105790008946F748006800F073FD06460022F54B85
:1057A00000F077FC824642464B4600F072FC04460D
:1057B00000F079FDF0490860F0480168F0480068A1
:1057C00000F044FB0446EF480168E848006800F038
:1057D0003DFB0546214600F08DFD7CD2EA4801687C
:1057E000EA48006800F032FB0446E6480168DF48FA
:1057F000006800F02BFB0546214600F07BFD7AD2C5
:10580000DE480168DE48006800F020FB0446DD4801
:105810000168D648006800F019FB0546214600F0F3
:1058200051FBDB490860D8480168D848006800F09F
:105830000DFB0446D3480168CC48006800F006FB25
:105840000546214600F03EFBD24908604FF07E50ED
:10585000C7490860C9480168C948006800F0A4FA4F
:10586000804600F00DFD82468B46C948006800F076
:1058700007FD80460022BF4B00F00BFC0646524657
:105880005B4600F006FC044600F00DFDC2490860CE
:10589000BD480168BD48006800F086FA064600F081
:1058A000EFFC04460D46BB48006800F0E9FC0646E4
:1058B0000022B04B00F0EDFB804622462B4600F064
:1058C000E8FB824600F0EFFCB4490860AD4801688F
:1058D000A648006800E00EE000F066FA804600F09E
:1058E000CFFC06460022A34B00F0D3FB044600F099
:1058F000DAFCA1490860A048006800F0C1FC8246BB
:105900008B46A648006800F0BBFC80468946A2484A
:10591000006800F0B5FC04460D469548006800F0AC
:10592000AFFC06460F469B48006800F0A9FCCDE995
:105930000C019748006800F0A3FC04AAA2E8300F0D
:10594000CDE90267CDE90A01DDE90C01CDE90001ED
:105950009348DDE90A2300F0E5FE0FB0BDE8F08FC3
:1059600010B510218F48FBF71EF848F20300FCF732
:105970006FFF48F20120FCF76BFF4FF40340FCF788
:1059800067FF4FF40040FCF763FF10218548FBF7E9
:1059900008F810BD70B5002483480088834908606A
:1059A0000020814908808148006800F053FC0546CA
:1059B0007F4900F087FA0446204670BD10B5FFF716
:1059C000E9FF7C490860FDF721F87B49086008463B
:1059D0000068FDF78AF879490860084600680068A1
:1059E00077490860754800684068764908607348E0
:1059F0000068806874490860FDF7C2F86E49086065
:105A000008460068FDF742F96C49086008460068DE
:105A100000686E4908606948006840686C49086021
:105A20006648006880686B490860FDF77AF962494A
:105A3000086008460068FDF7ADF96049086009682C
:105A400008685349096800F007FA0446524801689B
:105A5000204600F0A9F9604908605849096848687B
:105A60004C49096800F0F8F904464C4801682046A2
:105A700000F09AF9594908605049096888683C491A
:105A8000096800F0E9F904463B480168204600F047
:105A90008BF95349086010BD2DE9FF47002051499B
:105AA000086048608860FCF700FF434908600846CA
:105AB0000068FCF769FF4149086008460068006813
:105AC000484908603D480068406848603B480068B5
:105AD0008068886039490968886800F0D1FB04460D
